:100000000200553200000000000000320000000035
:10001000000000320000000000000032000000007C
:100020000000003200000000000000000000C39546
:10003000F02212002E60044002E422740122C0E08B
:10004000741B1470FDD0E0002278C87902D8FED964
:10005000FCD5E0F522787FE4F6D8FD758126752081
:10006000007580FFD2B7D2B2D2A3D295D2A2D2B3BA
:10007000D294D293752101D297D2B6D2B5D2B4C25E
:1000800097E521B4000280030200ADA294920450CF
:10009000030200ADC2A2C2B2C2A3740A114911D4B4
:1000A000113E311B74321149C2B3752101E521B4EF
:1000B000010280030200CBA294920440030200CB11
:1000C000D2A2D2B2D2A3D2B3752100D29702007FBE
:1000D000C2AF80FE90017F85822485832575230130
:1000E00075F013E52311327003020118852482850F
:1000F00025837822E493A3858224858325F6E5224F
:10010000B40102800302010D316202010F316E055C
:1001100023E52360030200E031752290019285827D
:100120002485832575230175F013E52311327003AF
:1001300002015F8524828525837822E493A385824A
:1001400024858325F6E522B401028003020154319F
:1001500062020156316E0523E52360030201273157
:100160007522C2B500C2B600D2B600D2B522C2B660
:1001700000D2B6002200C2B400D2B400D2B522012F
:10018000000101000000010000000000000000006C
:100190000001000000010001010001000100000059
:1001A000000000000000000000000000000000004F
:00000001FF
